{
  "_format": "hh-sol-artifact-1",
  "contractName": "SupplyChain",
  "sourceName": "contracts/SupplyChain.sol",
  "abi": [
    {
      "anonymous": false,
      "inputs": [
        {
          "indexed": false,
          "internalType": "uint256",
          "name": "productId",
          "type": "uint256"
        },
        {
          "indexed": false,
          "internalType": "string",
          "name": "productName",
          "type": "string"
        },
        {
          "indexed": false,
          "internalType": "string",
          "name": "companyName",
          "type": "string"
        },
        {
          "indexed": true,
          "internalType": "address",
          "name": "manufacturer",
          "type": "address"
        }
      ],
      "name": "ProductAdded",
      "type": "event"
    },
    {
      "anonymous": false,
      "inputs": [
        {
          "indexed": false,
          "internalType": "uint256",
          "name": "productId",
          "type": "uint256"
        },
        {
          "indexed": false,
          "internalType": "string",
          "name": "status",
          "type": "string"
        },
        {
          "indexed": false,
          "internalType": "string",
          "name": "location",
          "type": "string"
        },
        {
          "indexed": true,
          "internalType": "address",
          "name": "updatedBy",
          "type": "address"
        }
      ],
      "name": "ProductStatusUpdated",
      "type": "event"
    },
    {
      "inputs": [
        {
          "internalType": "uint256",
          "name": "_productId",
          "type": "uint256"
        },
        {
          "internalType": "string",
          "name": "_productName",
          "type": "string"
        },
        {
          "internalType": "string",
          "name": "_companyName",
          "type": "string"
        },
        {
          "internalType": "string",
          "name": "_location",
          "type": "string"
        }
      ],
      "name": "addProduct",
      "outputs": [],
      "stateMutability": "nonpayable",
      "type": "function"
    },
    {
      "inputs": [
        {
          "internalType": "uint256",
          "name": "_productId",
          "type": "uint256"
        },
        {
          "internalType": "string",
          "name": "_companyName",
          "type": "string"
        }
      ],
      "name": "authenticateCompanyProduct",
      "outputs": [
        {
          "internalType": "bool",
          "name": "",
          "type": "bool"
        }
      ],
      "stateMutability": "view",
      "type": "function"
    },
    {
      "inputs": [
        {
          "internalType": "uint256",
          "name": "_productId",
          "type": "uint256"
        }
      ],
      "name": "authenticateProduct",
      "outputs": [
        {
          "components": [
            {
              "internalType": "string",
              "name": "status",
              "type": "string"
            },
            {
              "internalType": "string",
              "name": "location",
              "type": "string"
            },
            {
              "internalType": "address",
              "name": "stakeholder",
              "type": "address"
            },
            {
              "internalType": "uint256",
              "name": "timestamp",
              "type": "uint256"
            }
          ],
          "internalType": "struct SupplyChain.ProductStep[]",
          "name": "",
          "type": "tuple[]"
        }
      ],
      "stateMutability": "view",
      "type": "function"
    },
    {
      "inputs": [
        {
          "internalType": "uint256",
          "name": "_productId",
          "type": "uint256"
        }
      ],
      "name": "getLastProductStatus",
      "outputs": [
        {
          "internalType": "string",
          "name": "status",
          "type": "string"
        },
        {
          "internalType": "string",
          "name": "location",
          "type": "string"
        },
        {
          "internalType": "address",
          "name": "stakeholder",
          "type": "address"
        },
        {
          "internalType": "uint256",
          "name": "timestamp",
          "type": "uint256"
        }
      ],
      "stateMutability": "view",
      "type": "function"
    },
    {
      "inputs": [
        {
          "internalType": "uint256",
          "name": "_productId",
          "type": "uint256"
        }
      ],
      "name": "getProductDetails",
      "outputs": [
        {
          "internalType": "uint256",
          "name": "",
          "type": "uint256"
        },
        {
          "internalType": "string",
          "name": "",
          "type": "string"
        },
        {
          "internalType": "string",
          "name": "",
          "type": "string"
        },
        {
          "internalType": "address",
          "name": "",
          "type": "address"
        },
        {
          "internalType": "address",
          "name": "",
          "type": "address"
        },
        {
          "internalType": "uint256",
          "name": "",
          "type": "uint256"
        }
      ],
      "stateMutability": "view",
      "type": "function"
    },
    {
      "inputs": [
        {
          "internalType": "uint256",
          "name": "_productId",
          "type": "uint256"
        }
      ],
      "name": "getProductHistory",
      "outputs": [
        {
          "components": [
            {
              "internalType": "string",
              "name": "status",
              "type": "string"
            },
            {
              "internalType": "string",
              "name": "location",
              "type": "string"
            },
            {
              "internalType": "address",
              "name": "stakeholder",
              "type": "address"
            },
            {
              "internalType": "uint256",
              "name": "timestamp",
              "type": "uint256"
            }
          ],
          "internalType": "struct SupplyChain.ProductStep[]",
          "name": "",
          "type": "tuple[]"
        }
      ],
      "stateMutability": "view",
      "type": "function"
    },
    {
      "inputs": [
        {
          "internalType": "uint256",
          "name": "",
          "type": "uint256"
        },
        {
          "internalType": "uint256",
          "name": "",
          "type": "uint256"
        }
      ],
      "name": "productSteps",
      "outputs": [
        {
          "internalType": "string",
          "name": "status",
          "type": "string"
        },
        {
          "internalType": "string",
          "name": "location",
          "type": "string"
        },
        {
          "internalType": "address",
          "name": "stakeholder",
          "type": "address"
        },
        {
          "internalType": "uint256",
          "name": "timestamp",
          "type": "uint256"
        }
      ],
      "stateMutability": "view",
      "type": "function"
    },
    {
      "inputs": [
        {
          "internalType": "uint256",
          "name": "",
          "type": "uint256"
        }
      ],
      "name": "products",
      "outputs": [
        {
          "internalType": "uint256",
          "name": "productId",
          "type": "uint256"
        },
        {
          "internalType": "string",
          "name": "productName",
          "type": "string"
        },
        {
          "internalType": "string",
          "name": "companyName",
          "type": "string"
        },
        {
          "internalType": "address",
          "name": "manufacturer",
          "type": "address"
        },
        {
          "internalType": "address",
          "name": "currentOwner",
          "type": "address"
        },
        {
          "internalType": "uint256",
          "name": "creationTimestamp",
          "type": "uint256"
        }
      ],
      "stateMutability": "view",
      "type": "function"
    },
    {
      "inputs": [
        {
          "internalType": "uint256",
          "name": "_productId",
          "type": "uint256"
        },
        {
          "internalType": "address",
          "name": "_newOwner",
          "type": "address"
        }
      ],
      "name": "transferOwnership",
      "outputs": [],
      "stateMutability": "nonpayable",
      "type": "function"
    },
    {
      "inputs": [
        {
          "internalType": "uint256",
          "name": "_productId",
          "type": "uint256"
        },
        {
          "internalType": "string",
          "name": "_status",
          "type": "string"
        },
        {
          "internalType": "string",
          "name": "_location",
          "type": "string"
        }
      ],
      "name": "updateStatus",
      "outputs": [],
      "stateMutability": "nonpayable",
      "type": "function"
    }
  ],
  "bytecode": "0x6080604052348015600f57600080fd5b5061232e8061001f6000396000f3fe608060405234801561001057600080fd5b506004361061009e5760003560e01c80637acc0b20116100665780637acc0b2014610187578063b49dbfc2146101bc578063c1393d27146101d8578063c1ccd96e146101f4578063f7fa218a146102245761009e565b806329507f73146100a35780634abcbf37146100bf57806357a096a1146100ef5780635979c8371461011f5780636813b53b14610152575b600080fd5b6100bd60048036038101906100b891906115c6565b610257565b005b6100d960048036038101906100d4919061174c565b610354565b6040516100e691906117c3565b60405180910390f35b610109600480360381019061010491906117de565b610428565b60405161011691906119d4565b60405180910390f35b610139600480360381019061013491906119f6565b61061e565b6040516101499493929190611a9e565b60405180910390f35b61016c600480360381019061016791906117de565b61079b565b60405161017e96959493929190611af1565b60405180910390f35b6101a1600480360381019061019c91906117de565b6109dd565b6040516101b396959493929190611af1565b60405180910390f35b6101d660048036038101906101d19190611b60565b610b69565b005b6101f260048036038101906101ed9190611beb565b610dab565b005b61020e600480360381019061020991906117de565b6110be565b60405161021b91906119d4565b60405180910390f35b61023e600480360381019061023991906117de565b6112b4565b60405161024e9493929190611a9e565b60405180910390f35b813373ffffffffffffffffffffffffffffffffffffffff1660008083815260200190815260200160002060040160009054906101000a900473ffffffffffffffffffffffffffffffffffffffff1673ffffffffffffffffffffffffffffffffffffffff16146102fb576040517f08c379a00000000000000000000000000000000000000000000000000000000081526004016102f290611cf2565b60405180910390fd5b8160008085815260200190815260200160002060040160006101000a81548173ffffffffffffffffffffffffffffffffffffffff021916908373ffffffffffffffffffffffffffffffffffffffff160217905550505050565b60008060008085815260200190815260200160002060000154036103ad576040517f08c379a00000000000000000000000000000000000000000000000000000000081526004016103a490611d5e565b60405180910390fd5b816040516020016103be9190611dba565b604051602081830303815290604052805190602001206000808581526020019081526020016000206002016040516020016103f99190611ec9565b604051602081830303815290604052805190602001200361041d5760019050610422565b600090505b92915050565b606060016000838152602001908152602001600020805480602002602001604051908101604052809291908181526020016000905b82821015610613578382906000526020600020906004020160405180608001604052908160008201805461049090611e00565b80601f01602080910402602001604051908101604052809291908181526020018280546104bc90611e00565b80156105095780601f106104de57610100808354040283529160200191610509565b820191906000526020600020905b8154815290600101906020018083116104ec57829003601f168201915b5050505050815260200160018201805461052290611e00565b80601f016020809104026020016040519081016040528092919081815260200182805461054e90611e00565b801561059b5780601f106105705761010080835404028352916020019161059b565b820191906000526020600020905b81548152906001019060200180831161057e57829003601f168201915b505050505081526020016002820160009054906101000a900473ffffffffffffffffffffffffffffffffffffffff1673ffffffffffffffffffffffffffffffffffffffff1673ffffffffffffffffffffffffffffffffffffffff1681526020016003820154815250508152602001906001019061045d565b505050509050919050565b6001602052816000526040600020818154811061063a57600080fd5b90600052602060002090600402016000915091505080600001805461065e90611e00565b80601f016020809104026020016040519081016040528092919081815260200182805461068a90611e00565b80156106d75780601f106106ac576101008083540402835291602001916106d7565b820191906000526020600020905b8154815290600101906020018083116106ba57829003601f168201915b5050505050908060010180546106ec90611e00565b80601f016020809104026020016040519081016040528092919081815260200182805461071890611e00565b80156107655780601f1061073a57610100808354040283529160200191610765565b820191906000526020600020905b81548152906001019060200180831161074857829003601f168201915b5050505050908060020160009054906101000a900473ffffffffffffffffffffffffffffffffffffffff16908060030154905084565b60006060806000806000806000808981526020019081526020016000206040518060c0016040529081600082015481526020016001820180546107dd90611e00565b80601f016020809104026020016040519081016040528092919081815260200182805461080990611e00565b80156108565780601f1061082b57610100808354040283529160200191610856565b820191906000526020600020905b81548152906001019060200180831161083957829003601f168201915b5050505050815260200160028201805461086f90611e00565b80601f016020809104026020016040519081016040528092919081815260200182805461089b90611e00565b80156108e85780601f106108bd576101008083540402835291602001916108e8565b820191906000526020600020905b8154815290600101906020018083116108cb57829003601f168201915b505050505081526020016003820160009054906101000a900473ffffffffffffffffffffffffffffffffffffffff1673ffffffffffffffffffffffffffffffffffffffff1673ffffffffffffffffffffffffffffffffffffffff1681526020016004820160009054906101000a900473ffffffffffffffffffffffffffffffffffffffff1673ffffffffffffffffffffffffffffffffffffffff1673ffffffffffffffffffffffffffffffffffffffff1681526020016005820154815250509050806000015181602001518260400151836060015184608001518560a001519650965096509650965096505091939550919395565b6000602052806000526040600020600091509050806000015490806001018054610a0690611e00565b80601f0160208091040260200160405190810160405280929190818152602001828054610a3290611e00565b8015610a7f5780601f10610a5457610100808354040283529160200191610a7f565b820191906000526020600020905b815481529060010190602001808311610a6257829003601f168201915b505050505090806002018054610a9490611e00565b80601f0160208091040260200160405190810160405280929190818152602001828054610ac090611e00565b8015610b0d5780601f10610ae257610100808354040283529160200191610b0d565b820191906000526020600020905b815481529060010190602001808311610af057829003601f168201915b5050505050908060030160009054906101000a900473ffffffffffffffffffffffffffffffffffffffff16908060040160009054906101000a900473ffffffffffffffffffffffffffffffffffffffff16908060050154905086565b823373ffffffffffffffffffffffffffffffffffffffff1660008083815260200190815260200160002060040160009054906101000a900473ffffffffffffffffffffffffffffffffffffffff1673ffffffffffffffffffffffffffffffffffffffff1614610c0d576040517f08c379a0000000000000000000000000000000000000000000000000000000008152600401610c0490611cf2565b60405180910390fd5b3360008086815260200190815260200160002060040160006101000a81548173ffffffffffffffffffffffffffffffffffffffff021916908373ffffffffffffffffffffffffffffffffffffffff1602179055506001600085815260200190815260200160002060405180608001604052808581526020018481526020013373ffffffffffffffffffffffffffffffffffffffff1681526020014281525090806001815401808255809150506001900390600052602060002090600402016000909190919091506000820151816000019081610ce99190612077565b506020820151816001019081610cff9190612077565b5060408201518160020160006101000a81548173ffffffffffffffffffffffffffffffffffffffff021916908373ffffffffffffffffffffffffffffffffffffffff1602179055506060820151816003015550503373ffffffffffffffffffffffffffffffffffffffff167f64a2b01c87b174d3ffed687fe09f74921138e91383894ab81d7b8c71b3c2a5a4858585604051610d9d93929190612149565b60405180910390a250505050565b60008060008681526020019081526020016000206000015414610e03576040517f08c379a0000000000000000000000000000000000000000000000000000000008152600401610dfa906121da565b60405180910390fd5b6040518060c001604052808581526020018481526020018381526020013373ffffffffffffffffffffffffffffffffffffffff1681526020013373ffffffffffffffffffffffffffffffffffffffff16815260200142815250600080868152602001908152602001600020600082015181600001556020820151816001019081610e8d9190612077565b506040820151816002019081610ea39190612077565b5060608201518160030160006101000a81548173ffffffffffffffffffffffffffffffffffffffff021916908373ffffffffffffffffffffffffffffffffffffffff16021790555060808201518160040160006101000a81548173ffffffffffffffffffffffffffffffffffffffff021916908373ffffffffffffffffffffffffffffffffffffffff16021790555060a082015181600501559050506001600085815260200190815260200160002060405180608001604052806040518060400160405280600c81526020017f4d616e756661637475726564000000000000000000000000000000000000000081525081526020018381526020013373ffffffffffffffffffffffffffffffffffffffff1681526020014281525090806001815401808255809150506001900390600052602060002090600402016000909190919091506000820151816000019081610ffc9190612077565b5060208201518160010190816110129190612077565b5060408201518160020160006101000a81548173ffffffffffffffffffffffffffffffffffffffff021916908373ffffffffffffffffffffffffffffffffffffffff1602179055506060820151816003015550503373ffffffffffffffffffffffffffffffffffffffff167f3b57b518fcac2f7b307764de2a4b23b8543199fbd772f419dcb5a470edbc0ba78585856040516110b093929190612149565b60405180910390a250505050565b606060016000838152602001908152602001600020805480602002602001604051908101604052809291908181526020016000905b828210156112a9578382906000526020600020906004020160405180608001604052908160008201805461112690611e00565b80601f016020809104026020016040519081016040528092919081815260200182805461115290611e00565b801561119f5780601f106111745761010080835404028352916020019161119f565b820191906000526020600020905b81548152906001019060200180831161118257829003601f168201915b505050505081526020016001820180546111b890611e00565b80601f01602080910402602001604051908101604052809291908181526020018280546111e490611e00565b80156112315780601f1061120657610100808354040283529160200191611231565b820191906000526020600020905b81548152906001019060200180831161121457829003601f168201915b505050505081526020016002820160009054906101000a900473ffffffffffffffffffffffffffffffffffffffff1673ffffffffffffffffffffffffffffffffffffffff1673ffffffffffffffffffffffffffffffffffffffff168152602001600382015481525050815260200190600101906110f3565b505050509050919050565b6060806000806000600160008781526020019081526020016000208054905011611313576040517f08c379a000000000000000000000000000000000000000000000000000000000815260040161130a90612246565b60405180910390fd5b60006001600087815260200190815260200160002060018060008981526020019081526020016000208054905061134a9190612295565b8154811061135b5761135a6122c9565b5b906000526020600020906004020160405180608001604052908160008201805461138490611e00565b80601f01602080910402602001604051908101604052809291908181526020018280546113b090611e00565b80156113fd5780601f106113d2576101008083540402835291602001916113fd565b820191906000526020600020905b8154815290600101906020018083116113e057829003601f168201915b5050505050815260200160018201805461141690611e00565b80601f016020809104026020016040519081016040528092919081815260200182805461144290611e00565b801561148f5780601f106114645761010080835404028352916020019161148f565b820191906000526020600020905b81548152906001019060200180831161147257829003601f168201915b505050505081526020016002820160009054906101000a900473ffffffffffffffffffffffffffffffffffffffff1673ffffffffffffffffffffffffffffffffffffffff1673ffffffffffffffffffffffffffffffffffffffff168152602001600382015481525050905080600001518160200151826040015183606001519450945094509450509193509193565b6000604051905090565b600080fd5b600080fd5b6000819050919050565b61154581611532565b811461155057600080fd5b50565b6000813590506115628161153c565b92915050565b600073ffffffffffffffffffffffffffffffffffffffff82169050919050565b600061159382611568565b9050919050565b6115a381611588565b81146115ae57600080fd5b50565b6000813590506115c08161159a565b92915050565b600080604083850312156115dd576115dc611528565b5b60006115eb85828601611553565b92505060206115fc858286016115b1565b9150509250929050565b600080fd5b600080fd5b6000601f19601f8301169050919050565b7f4e487b7100000000000000000000000000000000000000000000000000000000600052604160045260246000fd5b61165982611610565b810181811067ffffffffffffffff8211171561167857611677611621565b5b80604052505050565b600061168b61151e565b90506116978282611650565b919050565b600067ffffffffffffffff8211156116b7576116b6611621565b5b6116c082611610565b9050602081019050919050565b82818337600083830152505050565b60006116ef6116ea8461169c565b611681565b90508281526020810184848401111561170b5761170a61160b565b5b6117168482856116cd565b509392505050565b600082601f83011261173357611732611606565b5b81356117438482602086016116dc565b91505092915050565b6000806040838503121561176357611762611528565b5b600061177185828601611553565b925050602083013567ffffffffffffffff8111156117925761179161152d565b5b61179e8582860161171e565b9150509250929050565b60008115159050919050565b6117bd816117a8565b82525050565b60006020820190506117d860008301846117b4565b92915050565b6000602082840312156117f4576117f3611528565b5b600061180284828501611553565b91505092915050565b600081519050919050565b600082825260208201905092915050565b6000819050602082019050919050565b600081519050919050565b600082825260208201905092915050565b60005b83811015611871578082015181840152602081019050611856565b60008484015250505050565b600061188882611837565b6118928185611842565b93506118a2818560208601611853565b6118ab81611610565b840191505092915050565b6118bf81611588565b82525050565b6118ce81611532565b82525050565b600060808301600083015184820360008601526118f1828261187d565b9150506020830151848203602086015261190b828261187d565b915050604083015161192060408601826118b6565b50606083015161193360608601826118c5565b508091505092915050565b600061194a83836118d4565b905092915050565b6000602082019050919050565b600061196a8261180b565b6119748185611816565b93508360208202850161198685611827565b8060005b858110156119c257848403895281516119a3858261193e565b94506119ae83611952565b925060208a0199505060018101905061198a565b50829750879550505050505092915050565b600060208201905081810360008301526119ee818461195f565b905092915050565b60008060408385031215611a0d57611a0c611528565b5b6000611a1b85828601611553565b9250506020611a2c85828601611553565b9150509250929050565b600082825260208201905092915050565b6000611a5282611837565b611a5c8185611a36565b9350611a6c818560208601611853565b611a7581611610565b840191505092915050565b611a8981611588565b82525050565b611a9881611532565b82525050565b60006080820190508181036000830152611ab88187611a47565b90508181036020830152611acc8186611a47565b9050611adb6040830185611a80565b611ae86060830184611a8f565b95945050505050565b600060c082019050611b066000830189611a8f565b8181036020830152611b188188611a47565b90508181036040830152611b2c8187611a47565b9050611b3b6060830186611a80565b611b486080830185611a80565b611b5560a0830184611a8f565b979650505050505050565b600080600060608486031215611b7957611b78611528565b5b6000611b8786828701611553565b935050602084013567ffffffffffffffff811115611ba857611ba761152d565b5b611bb48682870161171e565b925050604084013567ffffffffffffffff811115611bd557611bd461152d565b5b611be18682870161171e565b9150509250925092565b60008060008060808587031215611c0557611c04611528565b5b6000611c1387828801611553565b945050602085013567ffffffffffffffff811115611c3457611c3361152d565b5b611c408782880161171e565b935050604085013567ffffffffffffffff811115611c6157611c6061152d565b5b611c6d8782880161171e565b925050606085013567ffffffffffffffff811115611c8e57611c8d61152d565b5b611c9a8782880161171e565b91505092959194509250565b7f4e6f74207468652063757272656e74206f776e65722e00000000000000000000600082015250565b6000611cdc601683611a36565b9150611ce782611ca6565b602082019050919050565b60006020820190508181036000830152611d0b81611ccf565b9050919050565b7f50726f6475637420646f6573206e6f742065786973742e000000000000000000600082015250565b6000611d48601783611a36565b9150611d5382611d12565b602082019050919050565b60006020820190508181036000830152611d7781611d3b565b9050919050565b600081905092915050565b6000611d9482611837565b611d9e8185611d7e565b9350611dae818560208601611853565b80840191505092915050565b6000611dc68284611d89565b915081905092915050565b7f4e487b7100000000000000000000000000000000000000000000000000000000600052602260045260246000fd5b60006002820490506001821680611e1857607f821691505b602082108103611e2b57611e2a611dd1565b5b50919050565b60008190508160005260206000209050919050565b60008154611e5381611e00565b611e5d8186611d7e565b94506001821660008114611e785760018114611e8d57611ec0565b60ff1983168652811515820286019350611ec0565b611e9685611e31565b60005b83811015611eb857815481890152600182019150602081019050611e99565b838801955050505b50505092915050565b6000611ed58284611e46565b915081905092915050565b60006020601f8301049050919050565b600082821b905092915050565b600060088302611f2d7fffffffffffffffffffffffffffffffffffffffffffffffffffffffffffffffff82611ef0565b611f378683611ef0565b95508019841693508086168417925050509392505050565b6000819050919050565b6000611f74611f6f611f6a84611532565b611f4f565b611532565b9050919050565b6000819050919050565b611f8e83611f59565b611fa2611f9a82611f7b565b848454611efd565b825550505050565b600090565b611fb7611faa565b611fc2818484611f85565b505050565b5b81811015611fe657611fdb600082611faf565b600181019050611fc8565b5050565b601f82111561202b57611ffc81611e31565b61200584611ee0565b81016020851015612014578190505b61202861202085611ee0565b830182611fc7565b50505b505050565b600082821c905092915050565b600061204e60001984600802612030565b1980831691505092915050565b6000612067838361203d565b9150826002028217905092915050565b61208082611837565b67ffffffffffffffff81111561209957612098611621565b5b6120a38254611e00565b6120ae828285611fea565b600060209050601f8311600181146120e157600084156120cf578287015190505b6120d9858261205b565b865550612141565b601f1984166120ef86611e31565b60005b82811015612117578489015182556001820191506020850194506020810190506120f2565b868310156121345784890151612130601f89168261203d565b8355505b6001600288020188555050505b505050505050565b600060608201905061215e6000830186611a8f565b81810360208301526121708185611a47565b905081810360408301526121848184611a47565b9050949350505050565b7f50726f6475637420616c72656164792065786973747321000000000000000000600082015250565b60006121c4601783611a36565b91506121cf8261218e565b602082019050919050565b600060208201905081810360008301526121f3816121b7565b9050919050565b7f4e6f20686973746f727920666f7220746869732070726f647563742e00000000600082015250565b6000612230601c83611a36565b915061223b826121fa565b602082019050919050565b6000602082019050818103600083015261225f81612223565b9050919050565b7f4e487b7100000000000000000000000000000000000000000000000000000000600052601160045260246000fd5b60006122a082611532565b91506122ab83611532565b92508282039050818111156122c3576122c2612266565b5b92915050565b7f4e487b7100000000000000000000000000000000000000000000000000000000600052603260045260246000fdfea26469706673582212209e1e9dfb82c3abcb6dd31725e76018846ed3154d1a56ed889be4311ed6316a0f64736f6c634300081b0033",
  "linkReferences": {},
  "deployedLinkReferences": {}
}